:020000040800F2
:1000000040130020790200088102000883020008E2
:10001000850200088702000889020008000000002D
:100020000000000000000000000000008B0200083B
:100030008D020008000000008F02000891020008F5
:10004000930200089302000893020008930200083C
:100050009302000893020008C906000893020008F2
:10006000930200089302000893020008930200081C
:10007000930200089302000893020008930200080C
:1000800093020008930200089302000893020008FC
:1000900093020008930200089302000893020008EC
:1000A00093020008930200089302000893020008DC
:1000B000930200080D1B0008930200089302000839
:1000C00093020008930200089302000893020008BC
:1000D00093020008391B00089302000893020008ED
:1000E0009302000885140008930200089302000898
:1000F000930200089302000893020008930200088C
:10010000930200089302000893020008930200087B
:10011000930200089302000893020008930200086B
:10012000930200089302000893020008930200085B
:10013000930200089302000893020008930200084B
:10014000930200089302000893020008930200083B
:10015000930200089302000893020008930200082B
:10016000930200089302000893020008930200081B
:10017000930200089302000893020008930200080B
:10018000930200089302000800F002F800F065F8FE
:100190000AA090E8000C82448344AAF10107DA45E2
:1001A00001D100F05AF8AFF2090EBAE80F0013F0CF
:1001B000010F18BFFB1A43F0010318471443000056
:1001C0003443000010F8013B0A4413F0030408BF55
:1001D00010F8014B1D1108BF10F8015B641E05D01B
:1001E00010F8016B641E01F8016BF9D1002D15D0D8
:1001F00010F8014B03F00C030C2BA1EB04040ABF15
:1002000010F8013BA4EB8314A4EB032405F10103D4
:1002100014F8016B5B1E01F8016BF9D5914238BFF0
:1002200010F8013BD1D3704700230024002500269D
:10023000103A28BF78C1FBD8520728BF30C148BF49
:100240000B607047642900F07380002070471FB571
:1002500002F0EEF91FBD10B510BD00F0E2F9114635
:10026000FFF7F5FF01F0A2FE00F000FA03B4FFF77C
:10027000F2FF03BC00F008FA09488047094800472C
:10028000FEE7FEE7FEE7FEE7FEE7FEE7FEE7FEE746
:10029000FEE7FEE704480549054A064B70470000A3
:1002A000A51A000889010008400D00204013002015
:1002B000400F0020400F00200FB41CB5074B06AACA
:1002C0007B4469460090059800F093F90020694648
:1002D00000F0A2F91CBC5DF814FB000055030000FF
:1002E00070B5044685690068C10601D5302600E076
:1002F0002026C00707D070BDD4E9012130469047C1
:10030000206A401C20626D1EF6D570BD70B5044693
:1003100085690078C00707D170BDD4E9012120208C
:100320009047206A401C20626D1EF6D570BD00000B
:100330002DE9F0410646002410687529314616A5BE
:1003400010D0AFF30080002802DA404213A507E086
:1003500031688A0701D512A502E0490704D511A525
:10036000012401E0AFF3008000210A2206F12407F6
:1003700009E0B0FBF2FCB0FBF2F302FB1C003030F2
:1003800078541846491C0028F3D123462A463046A3
:10039000BDE8F04100F0CEB8000000002D000000E4
:1003A0002B000000200000002DE9F05F8946044684
:1003B0004FF0000ADFF824B1FB44C0F820A020462B
:1003C000E168884700287DD0252806D0D4E901219E
:1003D0009047206A401C2062F1E700255F462046D6
:1003E000E16888472028064607DB312E05D2B81978
:1003F00010F8200C08B10543F1E7A80701D525F056
:100400000405C4F81CA00027C4F818A02A2E09D09F
:10041000304601F0C9FB38B304EB8708303EC8F81A
:10042000186019E059F8041B204604EB870291611B
:10043000E1688847012F064618D1E069002820DAD4
:1004400025F020051DE0D8F8180000EB800006EB31
:1004500040003038C8F818002046E1688847064652
:1004600001F0A2FB0028EED1012F0AD02E2E08D1D8
:100470002046E16888477F1C0646022F45F020058C
:10048000C4DBA069002803DA404245F00105A06101
:10049000E80701D025F01005A6B1A6F14100192802
:1004A00002D8203645F400654A463146204625608C
:1004B0004D46FFF7C7FE60B1012807D0ED1D25F0BE
:1004C000070000E007E000F1080978E705F10409FA
:1004D00075E730467AE7206ABDE8F09F00410000EA
:1004E0004FF0000200B5134694469646203922BFCD
:1004F000A0E80C50A0E80C50B1F12001BFF4F7AF18
:10050000090728BFA0E80C5048BF0CC05DF804EBF9
:10051000890028BF40F8042B08BF704748BF20F867
:10052000022B11F0804F18BF00F8012B7047704765
:10053000704770472DE9F0470D46994692460446AC
:1005400000F124080168880604D5E06921F0100153
:10055000216000E00120A84201DD471B00E00027E8
:10056000A1697A1902EB0900081AA0612078C00677
:1005700002D42046FFF7B4FE002608E0D4E90121AA
:100580001AF806009047206A401C761C20624E45EF
:10059000F4DB2078C0060AD52046FFF7A1FE06E06E
:1005A000D4E9012130209047206A401C2062381E87
:1005B000A7F10107F4DC07E0D4E9012118F80500F0
:1005C0009047206A401C2062281EA5F10105F3DC3B
:1005D0002046FFF79BFE2078000602D50220BDE8EA
:1005E000F0870120FBE7000001694A1C02610878DE
:1005F000704700B58FB0CDE9013100210591054963
:100600007944CDE9031011466846FFF7CDFE0FB0DF
:1006100000BD0000E5FFFFFF0A6802F8010B0A6059
:100620007047754600F02CF8AE4605006946534603
:1006300020F00700854618B020B5FFF72BFEBDE877
:1006400020404FF000064FF000074FF000084FF039
:10065000000B21F00701AC46ACE8C009ACE8C009CA
:10066000ACE8C009ACE8C0098D46704710B5044637
:10067000AFF300802046BDE81040FFF7F7BD000053
:1006800000487047DC0C002001491820ABBEFEE793
:10069000260002007047000030B502464FF6FF709A
:1006A00009E0C4B2157884EA0503521C054C34F8FD
:1006B000134084EA10200C1EA1F10105A9B2F0D16B
:1006C00030BD0000DC41000810B501200849086079
:1006D0000A2001F0A1FB0748006900F0010030B1D9
:1006E00000BF0448406980F080000249486110BDA5
:1006F000143C01400000024010B5002404E006480C
:10070000005D06490855641C182CF8D304490348B9
:1007100000F088F810BD0000F4430008AC0C002085
:10072000C40C002010B5002404E00648005D064912
:100730000855641C182CF8D30449034800F072F8DB
:1007400010BD00003C440008AC0C0020C40C00208C
:1007500010B5002404E00648005D06490855641CF5
:10076000182CF8D30449034800F05CF810BD0000D1
:100770000C440008AC0C0020C40C002010B5002470
:1007800004E00648005D06490855641C182CF8D39F
:100790000449034800F046F810BD00005444000826
:1007A000AC0C0020C40C0020024600210AB9002035
:1007B0007047002104E00448405C5054481CC1B21A
:1007C0001829F8DB1820F3E7C40C002010B500242A
:1007D00004E00648005D06490855641C182CF8D34F
:1007E0000449034800F01EF810BD0000DC43000877
:1007F000AC0C0020C40C002010B5002404E0064816
:10080000005D06490855641C182CF8D304490348B8
:1008100000F008F810BD000024440008AC0C0020D3
:10082000C40C00202DE9F04104460D460127122199
:10083000201DFFF731FF0646E6821822214666207A
:1008400000F035F8052001F0E7FA18222946662065
:1008500000F00BF8EE8A1221281DFFF71DFFB042B1
:1008600000D000273846BDE8F0812DE9F04106466A
:100870000C46174600F0BCF9012101EB4601C8B255
:1008800000F074F900F0F6F9002505E0002000F012
:1008900025F96055681CC5B2172DF7DB012000F063
:1008A0001DF9E07500F0C0F90020BDE8F0812DE9E8
:1008B000F04105460E46174600F09AF96906080E03
:1008C00000F054F900F0D6F9002406E0305D00F0A5
:1008D0004DF900F0CFF9601CC4B2182CF6DB00F023
:1008E000A3F90020BDE8F0811548006840F002003F
:1008F000134908601348006820F04040114908601F
:100900000846006840F080400860081D006820F438
:100910000040091D0860081D006820F04040091DC6
:1009200008600846006840F0004008600548143040
:10093000006820F40040034914310860704700004B
:10094000303802400004024010B54FF4807019495D
:10095000088018481A38006820F4402015491A39D0
:1009600008600846006840F4802008604815114976
:10097000891E0880022001F06BFA4FF400700D49C7
:100980000880032001F064FA4FF480700949891E41
:100990000880042001F05CFA4FF48070054908805B
:1009A000022001F055FA4FF400700249891E0880B8
:1009B00010BD00001A0402402A48006840F00200FE
:1009C000284908602848006820F44030264908601B
:1009D0000846006840F480300860081D006820F474
:1009E0008070091D086020480C30006840F4803099
:1009F0001D490C310860081F006820F44030091FB1
:100A000008600846006840F4003008601648006836
:100A100020F44020144908600846006840F4802013
:100A20000860081D006820F40070091D08600E4869
:100A30000C30006840F480200B490C310860081F1E
:100A4000006820F44020091F08600846006840F450
:100A5000002008608815044918310880400008808B
:100A600070470000303802400004024010B54FF4D7
:100A700080701949088018481A38006820F440200E
:100A800015491A3908600846006840F4802008605B
:100A900048151149891E0880022001F0D9F94FF448
:100AA00000700D49891E0880032001F0D1F94FF430
:100AB00080700949891E0880042001F0C9F94FF4AB
:100AC000807005490880022001F0C2F94FF40070DF
:100AD0000149891E088010BD1A04024070B50646FF
:100AE00000252148006820F440201F49086008467E
:100AF0000068086000242CE04FF480701A491A3115
:100B00000880052001F0A4F94FF4807016491831CF
:100B10000880042001F09CF913481030006800F4AC
:100B2000007008B1012000E00020012805D1C4F1C7
:100B3000070188402843C5B204E0C4F10701012041
:100B4000884085434FF4807007491A310880601C43
:100B5000C4B2082CD0DB16B9FFF7F6FE01E0FFF7B0
:100B600085FF284670BD00000004024070B50546B0
:100B70001E48006820F440201C49086008460068B0
:100B800040F480200860002427E04FF4807017496B
:100B90001A310880C4F1070101208840284028B19B
:100BA0004FF4007011491831088004E04FF40070D0
:100BB0000E491A310880032001F04AF94FF4807081
:100BC0000A4918310880032001F042F94FF480707F
:100BD00006491A310880601CC4B2082CD5DB4FF4DA
:100BE000007002491831088070BD00000004024006
:100BF00010B50C48006820F440200A4908600846F7
:100C0000006840F4802008604815064918310880C3
:100C1000401008804000891C0880062001F018F967
:100C200010BD00000004024010B51148006820F417
:100C300040200F4908600846006840F480200860A2
:100C400088150B491A31088040000880042001F003
:100C5000FFF84FF48070064918310880042001F035
:100C6000F7F84FF4007002491831088010BD0000F9
:100C70000004024010B500241748006820F440200A
:100C8000154908600846006808604815124918317F
:100C90000880012001F0DCF84FF480700E49183113
:100CA0000880012001F0D4F807E0601CC4B2FA2CDF
:100CB00003DDFFF7B9FF012010BD074810300068C1
:100CC00000F4007000B1F0E74FF4807002491A316F
:100CD00008800020F0E70000000402402DE9FC41FC
:100CE00004460D4616466B4606223B21682000F05E
:100CF00072F80746BFB99DF801009DF8001040EA60
:100D0000012000B220809DF803009DF8021040EA07
:100D1000012000B228809DF805009DF8041040EAEB
:100D2000012000B230803846BDE8FC8110B580213A
:100D30006B2000F0CCF8642001F06EF800216B20ED
:100D400000F0C5F8002000F080F8322000F0A2F892
:100D50000021382000F0BBF800216A2000F0B7F82D
:100D60000021232000F0B3F88021372000F0AFF8F5
:100D7000752000F013F80446682C0BD101216B207C
:100D800000F0A5F807216C2000F0A1F8322000F057
:100D900081F801E0012010BD0020FCE770B5044699
:100DA000FFF726FFD020FFF7E1FEFFF763FF2046A5
:100DB000FFF7DCFEFFF75EFFFFF71AFFD120FFF71A
:100DC000D5FEFFF757FF0120FFF788FE0546FFF726
:100DD0002BFF284670BD2DE9F04106460F4614460C
:100DE0001D46FFF705FF002141EA4601C8B2FFF7A3
:100DF000BDFEFFF73FFF20B1FFF716FF0120BDE862
:100E0000F0813846FFF7B2FEFFF734FFFFF7F0FE40
:100E1000012101EB4601C8B2FFF7A8FEFFF72AFF48
:100E20000DE0012C04D10120FFF758FE287003E0EB
:100E30000020FFF753FE2870601EC4B26D1C002C0A
:100E4000EFD1FFF7F1FE0020D9E710B50446E00628
:100E5000010E1C2000F03BF810BD70B504460025C3
:100E6000BC2C01DB012510E0622C01DB02250CE02B
:100E70002A2C01DB032508E0142C01DB042504E007
:100E80000A2C01DB052500E0062529461A2000F082
:100E90001EF870BD70B50446B4F57A7F01DD4FF4DD
:100EA0007A74042C00DA04244FF47A7090FBF4F086
:100EB000401EC5B22946192000F009F8054626460D
:100EC00004EBD671C1F34F00FFF7C7FF70BD70B5DB
:100ED00005460C46FFF78CFED020FFF747FEFFF7D4
:100EE000C9FE18B1FFF7A0FE012070BD2846FFF72C
:100EF0003DFEFFF7BFFE2046FFF738FEFFF7BAFEC4
:100F000018B1FFF791FE0120EFE7FFF78DFE0020FB
:100F1000EBE770B5002419E004F1B001C8B200217C
:100F200000F016FA0021022000F012FA0021102031
:100F300000F00EFA002505E00121002000F008FA7B
:100F4000681CC5B2802DF7DB601CC4B2082CE3DB43
:100F500070BD0000802001490880704718040240DD
:100F60002DE9F05F05460E4617469846DDF828A0A5
:100F70004FF0000B344615E02146284600F09AF861
:100F8000A9460BE059460BF1010B1AF801000121AB
:100F900000F0DEF909F1010000F0FF09B945F1DBCD
:100FA000601CC4B24445E7DBBDE8F09F2C480068F4
:100FB00040F003002A4908602A48006820F0406099
:100FC000284908600846006840F080600860081DF5
:100FD000006820F40050091D0860081D006820F01A
:100FE0004060091D08600846006840F00060086025
:100FF0001D48006820F040401B4908600846006812
:1010000040F0804008600846406820F40040486096
:101010000846806820F0404088600846806840F0BC
:10102000004088600F48006820F440400D49086087
:101030000846006840F480400860081D006820F001
:101040008000091D0860081D006820F44040091D4B
:1010500008600846006840F40040086000207047BF
:1010600030380240000402400000024010B5024641
:10107000012000E050430B1EA1F10104E1B2F9D1BF
:1010800010BD000010B54FF400500649088019202B
:1010900000F0C2FE4FF400500249891E0880002073
:1010A00010BD00001A0402408020014908807047EA
:1010B0001A04024070B504460D46A01CC4B205F1E6
:1010C000B001C8B2002100F043F9102141EA141028
:1010D000002100F03DF904F00F0141F00100002172
:1010E00000F036F970BD00002DE9F04180460E4653
:1010F0001546002731464046FFF7DCFF00240DE08F
:10110000690001EB8101134A02EBC101085D012175
:1011100000F01EF9781CC7B2601CC4B2102CEFDBC3
:10112000701CC1B24046FFF7C5FF00240EE0690005
:10113000491C01EB8101074A02EBC101085D012155
:1011400000F006F9781CC7B2601CC4B2102CEEDBAC
:10115000BDE8F081080000202DE9F04780460E46EA
:1011600091461F4600250024A9F12000C5B2B8F120
:101170007F0F02DDA046B01CC6B2182F3DD131460C
:101180004046FFF797FF00240AE005EB450104EB1A
:101190000111384A505C012100F0DAF8601CC4B239
:1011A000102CF2DB701CC1B24046FFF783FF002415
:1011B0000BE005EB450104EB011110312D4A505CA9
:1011C000012100F0C5F8601CC4B2102CF1DBB01C8A
:1011D000C1B24046FFF76EFF00240BE005EB45016E
:1011E00004EB01112031234A505C012100F0B0F8DA
:1011F000601CC4B2102CF1DB39E0102F24D1314631
:101200004046FFF757FF002408E004EB05111A4A97
:10121000505C012100F09CF8601CC4B2082CF4DB87
:10122000701CC1B24046FFF745FF002409E004EB03
:1012300005110831104A505C012100F089F8601C4A
:10124000C4B2082CF3DB12E031464046FFF732FF10
:1012500000240AE005EB4501084A02EB4101085D64
:10126000012100F075F8601CC4B2062CF2DBBDE869
:10127000F0870000CC3C0008B4340008A43A000811
:101280002DE9FF5F074691461E460E9D4FF0000A6E
:10129000002435E0301B401EC1B20A20FFF7E6FEF5
:1012A000B9FBF0F00A21B0FBF1F201FB1208BAF130
:1012B000000F14D1701EA04211DDB8F1000F0CD147
:1012C000AB4605EBDB71491001FB0471C8B22B463C
:1012D00020220199FFF740FF10E04FF0010AAB46D2
:1012E00005EBDB71491001FB0471C8B208F1300154
:1012F000CAB22B460199FFF72FFF00BF601CC4B292
:10130000B442C7DBBDE8FF9F2DE9F04104460F461C
:1013100015469846002616E0AA5D43463946204603
:10132000FFF71AFFB8F1180F03D104F11000C4B28F
:1013300002E004F10800C4B2782C02DD0024B81CDD
:10134000C7B2701CC6B2A85D0028E5D1BDE8F08127
:1013500070B505460C4624B14FF400400749088398
:1013600003E04FF4004005494883FFF79DFE2846FF
:1013700000F02EFBFFF7EEFD70BD00000000024004
:1013800010B5FFF713FEFFF7E5FDFFF77BFE002129
:10139000AE20FFF7DDFF00210220FFF7D9FF00217B
:1013A0001020FFF7D5FF00214020FFF7D1FF0021DB
:1013B0008120FFF7CDFF0021CF20FFF7C9FF0021DB
:1013C000A120FFF7C5FF0021C820FFF7C1FF0021C2
:1013D000A620FFF7BDFF0021A820FFF7B9FF0021DD
:1013E0003F20FFF7B5FF0021D320FFF7B1FF002119
:1013F0000846FFF7ADFF0021D520FFF7A9FF002128
:101400008020FFF7A5FF0021D920FFF7A1FF0021D1
:10141000F120FFF79DFF0021DA20FFF799FF00215F
:101420001220FFF795FF0021DB20FFF791FF00213D
:101430004020FFF78DFF00212020FFF789FF0021CA
:101440000220FFF785FF00218D20FFF781FF00219B
:101450001420FFF77DFF0021A420FFF779FF002172
:10146000A620FFF775FF0021AF20FFF771FF0021D5
:10147000AF20FFF76DFFFFF74CFD00210846FFF797
:1014800019FE10BD4FF40030074908600748006896
:1014900000F4807028B10548006820F4807003498A
:1014A0000860024800687047143C01400C28004066
:1014B000014600BF081100EB8000420001F00F0060
:1014C0001044C0B270470146002204E0501CC2B272
:1014D000A1F10A00C1B20A29F8DA100741EA106046
:1014E00070470000F0B504460D4616461F4600231F
:1014F00000BF00F059F90028FBD10A480368C3F384
:101500000740FFF7D5FF2070C3F30420FFF7D0FF9B
:10151000287003F03F00FFF7CBFF3070C3F3423079
:101520003870F0BD0428004000B588B004AB05AAAF
:1015300006A907A8FFF7D6FF9DF81C001049087000
:101540009DF8180048709DF8140088709DF81000F0
:10155000C8706B4601AA02A903A800F013F89DF811
:101560000C00074908719DF8080048719DF80400B7
:1015700088719DF80000C871084608B000BD0000E1
:10158000900C0020F0B504460D4616461F46002379
:1015900000BF00F009F90028FBD10A480368C3F333
:1015A0000540FFF785FF2070C3F30620FFF780FF9B
:1015B000287003F07F00FFF77BFF3070C3F3875084
:1015C0003870F0BD002800400CB52D4903C9CDE9A5
:1015D00000012C48006840F080502A4908602A48E1
:1015E000006840F480702849086026483030006860
:1015F00040F0010023493031086000BF21483030FD
:10160000006800F002000028F8D01E483030006862
:1016100020F440701B49303108600846006840F4EF
:10162000807008600846006840F400400860CA20E6
:10163000164908605320086000F02AF808B101201C
:101640000CBDFF201149143908600846006840F4B9
:10165000FE0008600D481C38006820F040000B496F
:101660001C390860081D006820F08000091D086012
:10167000FF2006490860684600F054F80020DFE7C4
:10168000B444000840380240007000402428004064
:101690000A48006800F0400008B100207047074881
:1016A000006840F080000549086000BF03480068FA
:1016B00000F040000028F9D00020EFE70C2800409F
:1016C0002DE9F04106460C4615460027CA2014496C
:1016D000086053200860FFF7DBFF10B10120BDE870
:1016E000F0813046FFF7EFFE000403F0070140EA07
:1016F00041382046FFF7E7FE48EA00282846FFF772
:10170000E2FE48EA00070648203807600448183817
:10171000006820F080000249183908600020DEE7E8
:101720002428004030B50446E379A2796179207914
:1017300000F008F8E378A27861782078FFF7C0FF1E
:1017400030BD00002DE9F04106460C461546002745
:10175000CA201449086053200860FFF799FF10B1B0
:101760000120BDE8F0813046FFF7ADFE000403F034
:10177000010140EA81582046FFF7A5FE48EA00280B
:101780002846FFF7A0FE48EA00070648243807600D
:1017900004481838006820F08000024918390860B1
:1017A0000020DEE724280040CA200C4908605320AE
:1017B00008600A481838006820F0200007491839E6
:1017C000086000BF05481838006800F020000028B5
:1017D000F8D0FF200149086000207047242800400D
:1017E00010B500F090F810BD70B504462046FFF724
:1017F00075F90546284670BD10B5F52000F00CF8C7
:10180000044880ED010AF32000F006F8014880ED5D
:10181000000A10BD880C00202DE9F0412DED048B4D
:101820000446012700F05EF8FFF7E2F9802000F09F
:1018300076F80746002F49D1204600F070F898BB93
:1018400000BF062000F0E8FAFFF7D2F9812000F08F
:1018500066F80128F5D00020FFF7C6FF05460020F6
:10186000FFF7C2FF06460120FFF7BEFFFFF7DCF9D6
:1018700006F0FC0606EB052000EE100AB8EEC08A62
:10188000F52C12D19FED130A28EE000A9FED121AD3
:10189000C0EE010AB1EE080A70EEC08AB0EE680A26
:1018A000BDEC048BBDE8F08110E0F32C0ED19FED70
:1018B0000B0A28EE000A9FED081AC0EE010A9FED00
:1018C000080A30EEC09AB0EE490AE9E7B7EE000A1E
:1018D000E6E700000000FA420000804752B82F43BC
:1018E00066663B4210B5FFF783F9802000F017F8D9
:1018F00030B9E62000F013F810B9832000F00FF89B
:10190000FFF792F910BD10B5FFF772F9802000F0D3
:1019100006F8FE2000F003F8FFF786F910BD70B559
:1019200004462046FFF722F9FFF7A4F905462846AA
:1019300070BD00002248006840F0805020490860D7
:101940002048006840F440401E4908601C48383870
:1019500000681B4938390860084600680860084676
:10196000006840F4805008601748091F0860081F8D
:10197000006840F08070091F086000BF10484038C0
:10198000006800F000700028F8D040F202700F49A3
:1019900008600B483838006820F0030008493839DF
:1019A00008600846006840F00200086000BF044874
:1019B0003838006800F00C000828F8D170470000A3
:1019C000403802400070004010640107003C0240B3
:1019D000014600BF0948008900F002000028F9D044
:1019E0000648818100BF0548008900F001000028F9
:1019F000F9D002488089C0B2704700000030014031
:101A00002348006840F00200214908602048143053
:101A1000006840F480501E49143108601D48006879
:101A200020F47C601B4908600846006840F4286088
:101A300008601848203000681749084015492031CF
:101A400008600846006815490843124920310860BB
:101A500010480830006820F47C600E4908310860A6
:101A60000846006840F42860086000200C4908809F
:101A70000846008840F4407008800846008840F01E
:101A8000040008800846008840F040000880704745
:101A90003038024000040240FF0F00FF00505500A4
:101AA0000030014010B51548006840F4700013493B
:101AB00008601348006840F00100114908600020E8
:101AC0000F49083108600E4800680E4908400C496B
:101AD00008600D48091D0860081F006820F4802078
:101AE000091F0860002006490C310860FFF722FF3B
:101AF0004FF0006001498039086010BD88ED00E0BA
:101B000000380240FFFFF6FE10300024084800882D
:101B100000F0010028B10748406980F080000549C5
:101B200048610348008820F001000149088070479F
:101B3000100400400000024000B51048008800F08A
:101B40002000C8B10D4880880D490E4A127888548B
:101B50000C480078401C0B4908700846007805289E
:101B60000AD108460078084908700521044800F0A9
:101B70000DF800200349087000BD0000001001406E
:101B8000980C0020070000200600002000B5024647
:101B90000B4603E0107800F0D3FA521C181EA3F194
:101BA0000101CBB2F6D100BD30380A2801D20120A4
:101BB000704700207047000000B591B0182101A8BF
:101BC000FEF78EFCFEF702FE64E03448082336225E
:101BD000012100900020FFF7C3F90F2200214020CF
:101BE000FFF782FA102200214E20FFF77DFA0D2226
:101BF00000215C20FFF778FA0E2200216A20FFF70F
:101C000073FAFEF7A5FD01A8FEF7CEFD9DF80B00C7
:101C100030B9102322A202214020FFF775FB2CE0EF
:101C20009DF80B0001281AD110231FA20221402089
:101C3000FFF76AFB9DF80F309DF80E201CA107A846
:101C4000FEF73AFB102307AA04214020FFF75CFBB4
:101C500010231AA206214C20FFF756FB0DE09DF839
:101C60000B00022806D1102316A202214020FFF704
:101C70004BFB02E0642000F0CFF800F03BF948B1E4
:101C800012480078401C11490870FEF735FDFEF738
:101C9000CBFF00E099E700BF11B000BDE82A0008C3
:101CA00074657374696E670073756363657373003D
:101CB000253033642F253033640000006D6D486794
:101CC000000000006661696C2020200000000020F8
:101CD00000B5D3B070E0FFF78FFD03C8529151906B
:101CE0009DED510ABDEEC00A8DED290A9DED520A07
:101CF000BDEEC00A8DED010A062201213920FFF751
:101D0000F3F9082201214A20FFF7EEF90722052105
:101D10003920FFF7E9F9082205214A20FFF7E4F905
:101D200010200090032301215920299AFFF7A8FAD7
:101D300010200090032305215920019AFFF7A0FAF3
:101D40001F4803238022012100907020FFF708F92B
:101D50001C4807238022052100907020FFF700F91E
:101D6000194808233622012100900020FFF7F8F8D7
:101D7000642000F051F81548082336220121009014
:101D80000020FFF7EDF8642000F046F81048082323
:101D90003622012100900020FFF7E2F8642000F0D5
:101DA0003BF800F0A7F838B10A480078401C094910
:101DB0000870FEF739FF00E08DE700BF53B000BDAB
:101DC0002E2900084E290008562F0008D0300008A0
:101DD000B4270008000000204FF0E021096921F03D
:101DE00004014FF0E0221161C21700EB5272C2F3FE
:101DF000C702074B1A701946097801EB4102C2EB82
:101E0000C1114FF6FF7202EAC101024A1180704708
:101E1000020000200400002070B504464FF4077053
:101E200094FBF0F0C6B24FF4077094FBF0F100FBA6
:101E3000114085B205E04FF4077000F027F8701EDE
:101E4000C6B2002EF7D115B1284600F01FF870BDBC
:101E500001460D4A12784A434FF0E0235A610022AE
:101E60009A6101221A6100BF4FF0E022106900F070
:101E700001021AB100F48032002AF5D000224FF09E
:101E8000E0231A619A6170470200002001460D4A62
:101E900012884A434FF0E0235A6100229A610122DE
:101EA0001A6100BF4FF0E022106900F001021AB180
:101EB00000F48032002AF5D000224FF0E0231A61AE
:101EC0009A617047040000200848006840F0010053
:101ED000064908600648006820F0030004490860CD
:101EE0000846C06820F00300C860704730380240E0
:101EF0000000024010B516480078D0B115480069BE
:101F000000F0010008B1012000E00020012810D1FC
:101F100000200F4908700A20FFF77EFF0D48006976
:101F200000F0010008B1012000E0002001280CD1E0
:101F300010BD0848006900F0010008B1012000E070
:101F4000002010B90120024908700020F0E70000CD
:101F500001000020000002401248006840F001002B
:101F6000104908601048006820F440400E4908609D
:101F70000846006840F4804008600846406820F049
:101F8000800048600846806820F440408860084629
:101F9000806840F4004088600846406940F0800056
:101FA0004861704730380240000002406420FFF76B
:101FB00013FFFFF7D1FFFFF787FFFFF721FDFFF7C3
:101FC000DFF9FEF7F9FCFFF70BFCFEF78DFCFEF7DF
:101FD000ADFEFFF7F9FAFEF79CFF00F0BDF840F602
:101FE000B830FFF719FF29E015480078072823D2F9
:101FF000DFE800F02204090E13181D00FEF789FF28
:1020000000F04EFA19E0FEF784FFFFF761FE14E0DE
:10201000FEF77FFF00F016F80FE0FEF77AFFFFF7FC
:10202000CBFD0AE0FEF775FF00F048F905E0FEF78A
:1020300070FF00F0C5F800E000BF00BFD4E700006B
:102040000000002000B591B0182101A8FEF748FA61
:10205000FEF7D2FB62E0092201214020FFF744F89D
:102060000A2201214E20FFF73FF80D2201215C20BA
:10207000FFF73AF80E2201216A20FFF735F80B220C
:1020800003214620FFF730F8102326A20321542015
:10209000FFF73AF90C2203215C20FFF725F8FEF741
:1020A0006DFB01A8FEF780FB9DF80B201EA107A881
:1020B000FEF702F9102307AA06214120FFF724F9B1
:1020C00010231BA206215A20FFF71EF919480823E6
:1020D0003622012100900020FEF742FF4FF4967057
:1020E000FFF79AFE144808233622012100900020B1
:1020F000FEF736FF4FF49670FFF78EFE6420FFF771
:102100008BFEFFF7F7FE48B10C480078401C0B49E6
:102110000870FEF707FBFEF787FD00E09BE700BFB6
:1021200011B000BD2F000000253033640000000016
:1021300062706D006E290008DC2D00080000002090
:1021400000BF0449098801F040010029F9D0014984
:10215000888070470010014008B5184808233622CF
:10216000012100900020FEF7FBFE172202213820FB
:10217000FEF7BAFF182202214820FEF7B5FF192208
:1021800002215820FEF7B0FF1A2202216820FEF734
:10219000ABFF1B2205213820FEF7A6FF1C220521DC
:1021A0004820FEF7A1FF1D2205215820FEF79CFFC5
:1021B0001E2205216820FEF797FF08BD622C00084B
:1021C00008B561E032480823362201210090002042
:1021D000FEF7C6FE0C232FA200213620FFF794F84D
:1021E0001F2200214C20FEF77FFF202200215E20CD
:1021F000FEF77AFF212200217020FEF775FF2222D0
:1022000002214C20FEF770FF232202215E20FEF700
:102210006BFF242202217020FEF766FF2522042195
:102220004C20FEF761FF262204215E20FEF75CFFB2
:10223000272204217020FEF757FF0C2316A2072146
:102240003E20FFF761F841F28830FFF7E5FDFEF729
:1022500060FE102313A203212C20FFF755F8102352
:1022600012A205211E20FFF74FF840F6B830FFF705
:10227000D3FDFEF74EFEFFF73DFE28B101200E49CB
:102280000870FEF7D1FC00E09CE700BF08BD00002D
:102290004A32000862793A0031362E31322E323518
:1022A000000000004D657272790000004368726999
:1022B00073746D61730000000000002000B52DED07
:1022C000048B8DB0C9E06A4601A902A8FEF706FD9D
:1022D000BDF9080000EE100AB8EEC00ADFED620A90
:1022E00080EE201AB2EE040A21EE008ABDF9040045
:1022F00000EE100AF8EEC00A9FED5B1A80EE810A2C
:10230000F2EE040A60EE208ABDF9000000EE100A29
:10231000F8EEC00A9FED541A80EE810AF2EE040A2C
:1023200020EE209A112202210420FEF7DDFE122267
:1023300002211420FEF7D8FE132202212420FEF7EA
:10234000D3FE142204210846FEF7CEFE15220421F6
:102350001420FEF7C9FE162204212420FEF7C4FE35
:10236000B5EEC08AF1EE10FA0FDBBCEEC80A10EE33
:10237000100AC2B23DA103A8FDF79EFF102303AAD5
:1023800001213C20FEF7C0FF10E0B1EE480ABCEE90
:10239000C00A10EE100AC2B236A103A8FDF78CFFE6
:1023A000102303AA01213C20FEF7AEFFF5EEC08A00
:1023B000F1EE10FA0FDBBCEEE80A10EE100AC2B222
:1023C0002EA103A8FDF778FF102303AA03213C20C8
:1023D000FEF79AFF10E0B1EE680ABCEEC00A10EEFC
:1023E000100AC2B227A103A8FDF766FF102303AAB3
:1023F00003213C20FEF788FFB5EEC09AF1EE10FAFB
:102400000FDBBCEEC90A10EE100AC2B21FA103A86E
:10241000FDF752FF102303AA05213C20FEF774FFAD
:1024200010E0B1EE490ABCEEC00A10EE100AC2B2CA
:1024300018A103A8FDF740FF102303AA05213C20A3
:10244000FEF762FFFFF756FD38B114480078401CD4
:1024500012490870FEF7E8FB00E034E700BF0DB05A
:10246000BDEC048B00BD000000008046583A2530CA
:1024700032642000583A2D2530326400593A253014
:1024800032642000593A2D25303264005A3A253002
:10249000326420005A3A2D253032640000000020BA
:1024A00010B5DEB096E0FFF7A7F903C85D915C9028
:1024B0009DED5C0ABDEEC00A8DED340A9DED5D0A0E
:1024C000BDEEC00A8DED0C0A1020009003230621FA
:1024D0000020349AFEF7D4FE10200090032306213A
:1024E00024200C9AFEF7CCFE3C4808232822062123
:1024F00000901820FEF734FD394808234C220621AD
:1025000000903C20FEF72CFDFFF70EF80446A07962
:1025100000906379227933A102A8FDF7CDFE18233C
:1025200002AA01210020FEF7EFFEA0780090637858
:10253000227830A102A8FDF7BFFE0C2302AA0521D4
:102540001B20FEF7E1FEE078082836D2DFE800F035
:1025500035040B121920272E10232BA206215A20F6
:10256000FEF7D2FE2AE0102328A206215A20FEF709
:10257000CBFE23E0102327A206215A20FEF7C4FE3B
:102580001CE0102324A206215A20FEF7BDFE15E010
:10259000102323A206215A20FEF7B6FE0EE01023D8
:1025A00020A206215A20FEF7AFFE07E010231EA24C
:1025B00006215A20FEF7A8FE00E000BF00BFFFF78B
:1025C00099FC38B119480078401C18490870FEF78A
:1025D0002BFB00E067E700BF5EB010BD2E290008AE
:1025E0004E290008253032643A253032643A2530CD
:1025F000326400003230253032642E253032642EB1
:1026000025303264000000004D6F6E005475657314
:1026100000000000576564005468757200000000F7
:10262000467269005361740053756E00000000200B
:102630004FF04070E1EE100A70470000000000000B
:10264000000080C0E0E0F0F8F8FCFCFC7E7E3E3F3D
:102650001F1F8F8F8FCFCFCFC7C7C7C7CFCECECECD
:10266000CC9C9C98303060E0C080000000000000EE
:10267000000080E0F0FCFEFFFFFFFF3F1F87C3E18B
:10268000F1F8FCFCFEFFFF7F7F3F3F1F1F1F0F0F76
:102690000F0F0F0F0F0F0F0F0F0F1F1F1E3E3C7955
:1026A00073E6CC900000F0FEFFFFFFFFFFFF1F036B
:1026B000E0F8FEFFFFFFFF3F0F07030100000000EF
:1026C0000000000000000000000000000080C0C00A
:1026D000E0E0E0F0F0F0E0E0E1E3C79CFFFFFFFFA7
:1026E000FFFFFFFF803EFFFFFFFFFF0F0000000026
:1026F000000000000000000000000000000000E0FA
:10270000FCFEFFFFFFFFFFFFFF7F07030101010149
:10271000010100073F7FFFFFFFFFFFFCF3FFFFFF0B
:10272000FFFEC000000000000000000000000000EC
:102730000000000000FFFFFFFFFFFFFFFFFFFF9211
:102740000000000000000000000000000103070F6F
:102750001F3F7FFFFFFFFFFFFFFFFEF8F0E0C0C05D
:1027600080000000000000000080E0FFFFFFFFFF8E
:10277000FFFFFF7F1F0000000000000000000000BE
:102780000000000000000000000001010303070733
:10279000070F0F0F1F1F1F1F1F1E1E1E1E1F1F1F95
:1027A0000F0F0F0F070703010000000000000000DB
:1027B00000000000000000000000C0C0E0F0F8F8D9
:1027C000FC7C7E3E3E3F1F1F1F1F1F1F1F1F1F1F22
:1027D0003F3E3E7E7CFCF8F8F0E0C0800000000048
:1027E0000000000000000000000000C0F0FCFEFF40
:1027F0007F1F0F0783E1F0F8383C1E0E0E0F07070E
:10280000070707070F0E0E9EBCF8F8F0E1E3E70F8D
:102810001F7FFFFEFCF0C000000000000000000071
:10282000FEFFFFFFFF030000F8FFFF0701000000AD
:102830000000E0F0F8FCFCFCFCFCFEFE7F3F1F0FFC
:102840000F070FFFFFF80000030F0F8F8F0E000020
:102850000000000000001FFFFFFFFFF08000073FA7
:102860007FF8E0C080000000010307070F0F070793
:10287000030000000080C0F0FC7F3F87C0F0FCFE3A
:10288000FFFFFFFEFCF8E080000000000000030FE7
:102890001F3F7FFEFCF8F0E1C3C381000000000091
:1028A0000000000000000000000080010383E1F848
:1028B000FEFF7F1FF7FFFFFFFFFFFFFFFFFFFFFC94
:1028C000F0C00000000000000000010307070F0F28
:1028D0001F1F1F3F3E3E3E3E3E3E3E3E3E3F3F1F91
:1028E000010000FFFFFFFFC100FFFFFFFFFFFFFF31
:1028F000FFFFFFFFFFFFFFFF0000000000000000E0
:1029000000000000000000000000000000000000C7
:102910000000000000000000000001070F1F1F3E24
:102920003F3F3F3F3F3F3F3F1F1F0F070300001840
:1029300024241800F0F81C0C0C0C181000000000E7
:10294000000000000F1F3830303018080000000071
:10295000001824241880C06030180C00000000000B
:1029600000180C06030100182424180000000000C1
:1029700000000080C0E0E0F0F0F8F8FCFCFCFCF89F
:10298000F8F0F0E0E0C0C080000080C0C0E0E0F0FF
:10299000F0F8F8F8FCFCFCFCF8F8F0E0E0C080008F
:1029A0000000000000C0F0FCFEFFFFFFFFFFFFFF84
:1029B000FFFFFFFFFFFFFFFFFFFFFFFFFF3FFFFEE8
:1029C000FFFFFFFFFFFFFFFFFFFFFFFFFFFFFFFF17
:1029D000FFFFFFFFFFFFFCF8E080FEFFFFFFFFFFB0
:1029E000FFFFFFFFFFFFFF3F03033FFFFFFFFFFF6F
:1029F0003F07008000073FFFFFFFFFFFFFFFFFFFD4
:102A0000FFFFFFFFFFFFFFFFFFFFFFFFFFFFFF3F96
:102A100003070707C7C7C7C7C7C7C7C7C1C0F0E015
:102A200080010F3F1F0380F8FFFFFFF8E001071F41
:102A30001F1F1F1F1F1F1F1F0F07070F1FFFFFFF56
:102A4000FFFF7F1F030000000000000103070F1FAE
:102A50003F7FFFFFFFFFFFFCE0C0E0FCFFFFFFFF49
:102A6000FFFFFFFFFFFFFFFFFFFFFFFFFFFFFEFC7A
:102A70007C3E1F0F07030100000000000000000063
:102A80000000000000000000000103070F1F3F7F4F
:102A9000FFFFFFFFFFFFFFFFFFFFFFFFFFFF7F3F86
:102AA0001F0F0703010000000000000000000000ED
:102AB0000000000000000000000000000000000016
:102AC000000000000000000103070F1F3F3F1F0F21
:102AD00007030100000000000000000000000000EB
:102AE000000000000000000000000080C0E0F0F8DE
:102AF000FCFCBCBCBCBCBCBCBCBCBCBCBCBCBCBC96
:102B0000BC3C3C3CFCFCF8F000000000C0E0F0F8ED
:102B10007C3C1C1C1C1CBCFC78F0E0C000000000CD
:102B2000FFFFFFFFFFFFFFFFFFFFFFFFFFFFFFFFB5
:102B3000FFFFFFFFFFFFFFFF0000FFFFFFFF0000A1
:102B40000000FFFFFFE180000C1E1E0F0100C0FF10
:102B5000FFFF00000000FFFFFFFFFFFFFFFFFFFF81
:102B6000FFFFFFFFFFFFFFFFFFFFFFFFFFFFF0F093
:102B7000FFFF7F3F00000000000103070F0FFEFE74
:102B8000FEFE0F0F07030100000000000307FFFF18
:102B9000FFFF8F0F0F0F0F0F0F0F0F0F0F0F0F0FE5
:102BA0000F0F0707010100000000000000000000F7
:102BB00000000000FFFFFFFF000000000000000019
:102BC0000000000000073FFFFFFCF8E0800000006D
:102BD0000000000000008080808080808000000075
:102BE00000000000000080C0F0FFFF7F1F01000018
:102BF00000000000000000000000000000000107CD
:102C00000F1F3F3E7CF8FCFCFCFEFFFFFFFFFFFFB9
:102C1000FFFFFFFFFFFEFCFCF8FC7E3E1F0F0703DB
:102C200000000000000000000000000000000000A4
:102C30000000000000000000000000000103030786
:102C4000070F0F0F0F0F0F0F0F0F070703030100E1
:102C50000000000000000000000000000000000074
:102C60000000000000000000000000000000000064
:102C7000000000008080C0C0E060703030000000C4
:102C800000000000000000000000000080F8FEFCD2
:102C90000000000000000000000000000000000034
:102CA000000080C0E0F0F8FC3E1F0F0703018080A9
:102CB00080C0808000C0E0F0F8FE7C3C0080C0F066
:102CC000F8FCFF7F1F010000000000000000000072
:102CD00000000000F0FCFEFFFFFFCFC3C1C0E0F723
:102CE000FFFEFFFFFF3F0787F7FFFCFFFFFFFFFC33
:102CF000FE7E3F1F1F0F0703800000000000000042
:102D0000000000000000000000000003070F0F0F8C
:102D10001F1F1F1B8BFFF3F7F7FFF7F737878F0393
:102D20000303030101000000000000000000C7F7DA
:102D3000EBE3E400000000000000000000000000E1
:102D40000000000000000000000B2DBDDFFFDF1FB2
:102D50000F0E070703000000000000000000000045
:102D60000080C070FEFF5D0F00000000000000004A
:102D7000000000000000000C1E3E7CD8F0E0C0C047
:102D8000871F9F0700000000000000000080808077
:102D9000006060F0D8585E1E0D0A030000000000BD
:102DA0000000000000000000000000000000000023
:102DB000000001010303030707070F0F0F0F0F0F99
:102DC000070F0703070603000000000000000000D3
:102DD00000000000000000000000000000000000F3
:102DE0000000000000000000008080C0E0E0E0E0A3
:102DF000C08080000000000000000000808080C0D3
:102E0000E0E0E0E0C0C08000000000000000000042
:102E10000000000000000080C0F0F8FCFEFFFFFF93
:102E2000FFFFFFFFFFFFFFFFFFFFFEFEFCF8FCFCC4
:102E3000FEFFFFFFFFFFFFFFFFFFFFFFFFFFFEFCA7
:102E4000F8F0C080000000000000000000FFFFFF5D
:102E5000FFFFFFFFFFFFFFFF7F0F7FFFFFFFFFFF72
:102E60003F8781077FFFFFFFFFFFFFFFFFFFFFFFA0
:102E7000FFFFFFFFFFFFFFFFFFFF0000000000005C
:102E800000000003070767E7E7E7E7E7E7E1F8F88F
:102E9000F0C10F1F0FC1F8FFFFFFFCE1CFDFDFDF45
:102EA000DFDFDFDF8F07078FFFFFFFFF7F3F0F03AE
:102EB000000000000000000000000000000001030E
:102EC000070F1F3F7FFFFFFFFCF0FCFFFFFFFFFF2F
:102ED000FFFFFFFFFFFFFFFFFFFF7F3F1F0F070306
:102EE00001000000000000000000000000000000E1
:102EF0000000000000000000000000000103070FB8
:102F00001F3F7FFFFFFFFFFF7F3F1F0F07030100F2
:102F100000000000000000000000000000000000B1
:102F200000000000000000000000000000000000A1
:102F3000000000000000000000000103010000008C
:102F40000000000000000000000000000000000081
:102F5000000000000000000000000000C0C0E0F021
:102F6000F8F8FC7C7E3E3E3F1F1F1F1F1F1F1F1FC8
:102F70001F1F3F3E3E7E7CFCF8F8F0E0C080000062
:102F800000000000000000000000000000C0F0FC95
:102F9000FEFF7F1F0F07FBF9F8F8F8FCFEEE8E0F1F
:102FA0000707070707070F0E0E1E3C78F8F0E1C36E
:102FB000070F1F7FFFFEFCF0C000000000000000B4
:102FC0000000FEFFFFFFFF030000F8FFFF07010303
:102FD000070F1F3FFFFFFEFCFCFCFCF8F0E00000C9
:102FE000000001070FFFFFF80000030F0F8F8F0E87
:102FF00000000000000000001FFFFFFFFFF0800046
:10300000073F7FF8E0C080000000010307070F0FB3
:103010000707030100000080C0F0FC7F3F87C0F07D
:10302000FCFEFFFFFFFEFCF8E08000000000000057
:10303000030F1F3F7FFEFCF8F0E1C3C381000000D7
:103040000000000000000000000000008001038379
:10305000E1F8FEFF7F1FF7FFFFFFFFFFFFFFFFFF0E
:10306000FFFCF0C0000000000000000001030707A3
:103070000F0F1F1F1F3F3E3E3E3E3E3E3E3E3E3F29
:103080003F1F010000FFFFFFFFC100FFFFFFFFFF29
:10309000FFFFFFFFFFFFFFFFFFFF0000000000003A
:1030A0000000000000000000000000000000000020
:1030B00000000000000000000000000001070F1FDA
:1030C0001F3E3F3F3F3F3F3F3F3F1F1F0F07030054
:1030D000000000000000C0C0E0F0F8F8FC7C7E3E7C
:1030E0003E3F1F1F9FDFFFFFDF9F1F1F3F3E3E7EB4
:1030F0007CFCF8F8F0E0C080000000000000000058
:1031000000000000000000C0F0FCFEFF7F1F0F0762
:10311000C3E1F0F8783C1E0E0E0FFFFFFFFFFFFF2C
:103120000F0E0E1E3C78F8F0E1C3070F1F7FFFFE65
:10313000FCF0C0000000000000000000FEFFFFFFE8
:10314000FF030000F8FFFF07010000000000E0F0AF
:10315000FFFFFFFFFFFFF0E00000000001070FFF8F
:10316000FFF80000030F0F8F8F0E0000000000001B
:1031700000001FFFFFFFFFF08000073F7FF8E0C067
:1031800080000000010307070F0F0707030100007D
:103190000080C0F0FC7F3F87C0F0FCFEFFFFFFFE19
:1031A000FCF8E080000000000000030F1F3F7FFEDE
:1031B000FCF8F0E1C3C38100000000000000000043
:1031C00000000000000080010383E1F8FEFF7F1F84
:1031D000F7FFFFFFFFFFFFFFFFFFFFFCF0C0000056
:1031E000000000000000010307070F0F1F1F1F3F13
:1031F0003E3E3E3E3E3E3E3E3E3F3F1F010000FF04
:10320000FFFFFFC100FFFFFFFFFFFFFFFFFFFFFF0B
:10321000FFFFFFFF000000000000000000000000B2
:10322000000000000000000000000000000000009E
:1032300000000000000001070F1F1F3E3F3F3F3FFF
:103240003F3F3F3F1F1F0F0703000000000000002B
:10325000000080C0E0703098980C2CF6F6F6FFFB6A
:10326000F303737BFFFF7F3B03C3C3F7F6F6EE0C5C
:103270000C18B8B070E0C080000000000000000032
:10328000000080E078FCFEFBE3E1FCCF8FDFEFF78E
:10329000FBF8FDFDFEFFFFFEFFFFFFFFFFFFFEFE51
:1032A000FEFFFDFDF8F2FFEFDFBF27E2E1E3E7EE0F
:1032B000BCF0E0800000F0FE0F79F8FCF0B6B7FB40
:1032C000FCFFFFFFFFFFFFFFFFFFCFA777EFDFBF91
:1032D00047FBFDFEFEFE7EBDC3FFFFFFFFFFFFFFBE
:1032E000FEFDE1F3F3F0F978737FFEE0FFFF0040AD
:1032F000C1C0C0C07FFFFFFFFFFFFFFF3FDFEFF751
:103300007BBDDEEFF7FBFDFE7FBFDFBF7EFDFBF782
:10331000EF1FFFFFFFFFFFFFFF7FD9D9D898981855
:10332000FFFF031F7EF08F3FFFFFF0E71F3FFFFF10
:10333000FFFCFBE3DDBEBFBFDFEFF7FBFDFEFFFFE2
:10334000FFFFFFFEFDFDFEFFFFFFFF7F3FCFC3FC42
:10335000FF7F3FC3F97F0F0100000001030F1C39FD
:1033600077EFDFBE3E79FBFBF7EFCFDF9F9FBFBF5D
:10337000BF3F3FBFBFBFBFBF9F9FDFCFCFE7F3F1CF
:103380007CBEBFCFE773391E0703000000000000BA
:10339000000000000000000001010307060E0D1DE3
:1033A000191B1B3B373737373737373737373B1B17
:1033B0001B1B0D0D0E0603030100000000000000A2
:1033C00000000000F808E8E8E8E808E8E8E8E808AD
:1033D000E8E8E8E8080808080808F8E03F202F2F88
:1033E0002F2F202F2F2F2F202F2F2F2F2020202047
:1033F00020203F0FF808E8E8E8E808E8E8E8E808EF
:1034000008080808080808080808F8E03F202F2FD7
:103410002F2F202F2F2F2F20202020202020202052
:1034200020203F0FF808E8E8E8E80808080808083E
:1034300008080808080808080808F8E03F202F2FA7
:103440002F2F20202020202020202020202020205E
:1034500020203F0FF80808080868E8E8C8C88888EE
:1034600088C8C8E8E86808080808F8E03F20202075
:10347000202C2E2627272323232327262E2C2020EB
:1034800020203F0FF80808080808088888E8E8E8BE
:10349000E8E8C8C8C80808080808F8E03F20202065
:1034A00020202023232F2F2F2F2F262626202020B9
:1034B00020203F0F0000000000000000000000007E
:1034C00000000000000000F80000000000000033D1
:1034D0003000000000100C06100C06000000000078
:1034E0000000000040C07840C0784000043F040461
:1034F0003F040400007088FC08300000001820FF22
:10350000211E0000F008F000E018000000211C035C
:103510001E211E0000F00888700000001E212324D8
:103520001927211010160E000000000000000000F6
:1035300000000000000000E0180402000000000786
:103540001820400000020418E0000000004020188D
:1035500007000000404080F0804040000202010F60
:1035600001020200000000F0000000000101011F44
:1035700001010100000000000000000080B07000A8
:103580000000000000000000000000000001010138
:1035900001010101000000000000000000303000C7
:1035A00000000000000000008060180400601806A1
:1035B0000100000000E010080810E000000F1020DB
:1035C00020100F00001010F8000000000020203F25
:1035D00020200000007008080888700000302824AF
:1035E0002221300000300888884830000018202050
:1035F00020110E000000C02010F800000007042475
:10360000243F240000F808888808080000192120B9
:1036100020110E0000E0108888180000000F112013
:1036200020110E0000380808C83808000000003FCC
:10363000000000000070880808887000001C22212B
:1036400021221C0000E010080810E00000003122D8
:1036500022110F00000000C0C00000000000003078
:1036600030000000000000800000000000008060CA
:10367000000000000000804020100800000102044B
:103680000810200040404040404040000404040432
:1036900004040400000810204080000000201008EE
:1036A00004020100007048080808F0000000003023
:1036B00036010000C030C828E810E00007182724B1
:1036C00023140B000000C038E0000000203C23025F
:1036D0000227382008F8888888700000203F2020C2
:1036E00020110E00C03008080808380007182020F4
:1036F0002010080008F808080810E000203F2020EB
:1037000020100F0008F88888E8081000203F2020CB
:103710002320180008F88888E8081000203F2000BF
:1037200003000000C03008080838000007182020F7
:10373000221E020008F808000008F808203F2101B6
:1037400001213F20000808F8080800000020203F61
:103750002020000000000808F8080800C0808080D1
:103760007F00000008F888C028180800203F2001CA
:103770002638200008F8080000000000203F202024
:103780002020300008F8F800F8F80800203F003F3B
:10379000003F200008F830C00008F808203F200053
:1037A00007183F00E01008080810E0000F10202064
:1037B00020100F0008F808080808F000203F210139
:1037C00001010000E01008080810E0000F18242490
:1037D00038504F0008F8888888887000203F200003
:1037E000030C3020007088080808380000382021B9
:1037F00021221C00180808F8080818000000203FC3
:103800002000000008F808000008F808001F202029
:1038100020201F000878880000C8380800000738FA
:103820000E010000F80800F80008F800033C07004B
:10383000073C0300081868808068180820302C03B3
:10384000032C30200838C800C83808000000203F8A
:103850002000000010080808C83808002038262179
:1038600020201800000000FE020202000000007F7D
:1038700040404000000C30C000000000000000018B
:103880000638C00000020202FE0000000040404076
:103890007F0000000000040202020400000000009B
:1038A0000000000000000000000000008080808018
:1038B0008080808000020204000000000000000000
:1038C0000000000000008080808000000019242299
:1038D00022223F2008F8008080000000003F1120D5
:1038E00020110E000000008080800000000E1120DA
:1038F00020201100000000808088F800000E1120B8
:1039000020103F200000808080800000001F2222C5
:1039100022221300008080F0888888180020203F31
:10392000202000000000808080808000006B949444
:103930009493600008F8008080800000203F210000
:1039400000203F2000809898000000000020203FC9
:1039500020200000000000809898000000C08080B7
:10396000807F000008F8000080808000203F240253
:103970002D302000000808F8000000000020203F43
:10398000202000008080808080808000203F2000F8
:103990003F20003F8080008080800000203F210089
:1039A00000203F200000808080800000001F202039
:1039B00020201F00808000808000000080FFA12068
:1039C00020110E000000008080808000000E112079
:1039D00020A0FF80808080008080800020203F2108
:1039E00020000100000080808080800000332424BB
:1039F00024241900008080E0808000000000001F67
:103A0000202000008080000000808000001F202017
:103A100020103F20808080000080808000010E30D8
:103A20000806010080800080008080800F300C0339
:103A30000C300F0000808000808080000020312E3C
:103A40000E312000808080000080808080818E7018
:103A50001806010000808080808080000021302CCA
:103A60002221300000000000807C020200000000E3
:103A7000003F404000000000FF0000000000000088
:103A8000FF0000000002027C800000000040403F78
:103A90000000000000060101020204040000000012
:103AA000000000000000000000000000002F0000E7
:103AB00000000700070000147F147F1400242A7FF1
:103AC0002A12006264081323003649552250000070
:103AD0000503000000001C224100000041221C00E0
:103AE0000014083E08140008083E0808000000A062
:103AF000600000080808080800006060000000205E
:103B000010080402003E5149453E0000427F40003B
:103B1000004261514946002141454B3100181412C1
:103B20007F10002745454539003C4A49493000018E
:103B30007109050300364949493600064949291EDD
:103B4000000036360000000056360000000814223F
:103B5000410000141414141400004122140800023F
:103B60000151090600324959513E007C1211127C64
:103B7000007F49494936003E41414122007F414191
:103B8000221C007F49494941007F09090901003E83
:103B90004149497A007F0808087F0000417F4100C1
:103BA000002040413F01007F08142241007F404037
:103BB0004040007F020C027F007F0408107F003E1F
:103BC0004141413E007F09090906003E4151215E05
:103BD000007F091929460046494949310001017F02
:103BE0000101003F4040403F001F2040201F003F98
:103BF0004038403F0063140814630007087008074A
:103C000000615149454300007F41410000552A555C
:103C10002A55000041417F000004020102040040D7
:103C200040404040000001020400002054545478F9
:103C3000007F484444380038444444200038444419
:103C4000487F00385454541800087E0901020018B7
:103C5000A4A4A47C007F080404780000447D4000F4
:103C6000004080847D00007F102844000000417FD8
:103C70004000007C04180478007C080404780038B4
:103C80004444443800FC242424180018242418FC3C
:103C9000007C0804040800485454542000043F44A5
:103CA0004020003C4040207C001C2040201C003C68
:103CB0004030403C004428102844001CA0A0A07CB8
:103CC000004464544C4414141414141400000000F0
:103CD00000000000000000000000000000000000E4
:103CE00000000000000000000000000000000000D4
:103CF00000000000000000000000000000000000C4
:103D00000000F0F0F00000000000000000000000E3
:103D10000000017F01000000000000000000000022
:103D200000001C1C1C1C0000000000000000806043
:103D3000303C1C8C60303C1C0C000000000000007B
:103D40000000000000000000000000000000000073
:103D50000000000000000000000000000000000063
:103D600000E0000000000000E00000000086868601
:103D7000FE878686868686FE878686000001011F6E
:103D80000101010101011F0101010100000000808A
:103D9000C0402020F8202060C0C0000000000003C8
:103DA000070C0C18FF3060E1C18100000000070F14
:103DB0000B1010107F1010080F07000080C060204B
:103DC00020C08000000080C0200000000F1F3020B5
:103DD000301F8F60D8E6331030E0C00000000010C4
:103DE0000C030100070F1810180F0700000080C017
:103DF000602020E0C00000000000000080E0271FDD
:103E000078E8C4070304C43C04040000070F18103A
:103E10001010110B070F181010100C0000808C4CA4
:103E20007C380000000000000000000000000000DE
:103E30000000000000000000000000000000000082
:103E40000000000000000000000000000000000072
:103E50000000000000C060301808040000000000EE
:103E60000000007CFF0100000000000000000000D6
:103E70000000000003070C18302040000004081860
:103E80003060C000000000000000000000000000E2
:103E9000000001FF7C000000000000000040203016
:103EA000180C0703000000000000000000000000E4
:103EB000000000C0C0C0000000000000000042661A
:103EC00066242818FF1824246666420000000000BB
:103ED00000000003030300000000000000000000D9
:103EE0000000000080000000000000000000101032
:103EF00010101010FF101010101010000000000023
:103F000000000000030000000000000000000000AE
:103F100000000000000000000000000000000000A1
:103F200000000000000000000000000000808C4C39
:103F30007C380000000000000000000000000000CD
:103F40000000000000000000000000000010101041
:103F500010101010101010101010100000000000B1
:103F60000000000000000000000000000000000051
:103F70000000000000000000000000000000000041
:103F800000000000000000000000000000001C1CF9
:103F90001C180000000000000000000000000000ED
:103FA00000000000000000C0301804000000000005
:103FB0000080C030180603000000000000403018E8
:103FC00006010000000000000000000000000000EA
:103FD000C0C0602020202040C00000000000FCFF86
:103FE000030000000000000001FFFE0000000003CD
:103FF000060C1810101018080E03000000000080B6
:10400000808080C0E0000000000000000000000090
:10401000000000FFFF000000000000000000001092
:104020001010101F1F101010100000000000804022
:1040300040202020202060C0C0800000000003023B
:1040400000000080402030180F0700000000181CFE
:104050001A191918181818181C070000000080C039
:1040600040202020206040C08000000000000303AA
:104070000000101010182867C38000000000070F10
:10408000101010101010180C0703000000000000A2
:1040900000000000C0E0F0F0000000000080C0B0B0
:1040A0009884828180FFFFFF8080800000000000F4
:1040B00000001010101F1F1F101010000000000043
:1040C000E060606060606060606000000000003E72
:1040D0002310080808081830F0C000000000070B83
:1040E000101010101010180C0F030000000000003A
:1040F00080C0402020202020E0C000000000FCFF05
:10410000211018080808081830F0C0000000010746
:104110000E081810101010180C070300000080E0A3
:1041200060606060606060E060200000000003008C
:10413000000000C0300C0201000000000000000080
:1041400000001E1F0000000000000000000080C0F2
:104150004020202020202040C08000000080C36735
:104160002C181810303070E8C783000000070F0CBF
:1041700018101010101018080F070000000080C061
:1041800060202020202040C080000000001F3F3021
:104190006040404040602010FFFE000000000C1C0A
:1041A0001010101018080C07030000000000000099
:1041B00000000000000000000000000000000000FF
:1041C00000000E0E0E0E00000000000000000000B7
:1041D00000001C1C1C1C0000000000000000C1C0EE
:1041E00081C1400101C3C003800241C201C6C006B3
:1041F000800741C70005C1C581C4400401CCC00C83
:10420000800D41CD000FC1CF81CE400E000AC1CA42
:1042100081CB400B01C9C009800841C801D8C01832
:10422000801941D9001BC1DB81DA401A001EC1DEB2
:1042300081DF401F01DDC01D801C41DC0014C1D4A2
:1042400081D5401501D7C017801641D601D2C012C2
:10425000801341D30011C1D181D0401001F0C03092
:10426000803141F10033C1F381F240320036C1F6B2
:1042700081F7403701F5C035803441F4003CC1FC82
:1042800081FD403D01FFC03F803E41FE01FAC03A42
:10429000803B41FB0039C1F981F840380028C1E872
:1042A00081E9402901EBC02B802A41EA01EEC02EB2
:1042B000802F41EF002DC1ED81EC402C01E4C024A2
:1042C000802541E50027C1E781E640260022C1E2C2
:1042D00081E3402301E1C021802041E001A0C060D2
:1042E000806141A10063C1A381A240620066C1A6B2
:1042F00081A7406701A5C065806441A4006CC1AC82
:1043000081AD406D01AFC06F806E41AE01AAC06A41
:10431000806B41AB0069C1A981A840680078C1B831
:1043200081B9407901BBC07B807A41BA01BEC07EB1
:10433000807F41BF007DC1BD81BC407C01B4C074A1
:10434000807541B50077C1B781B640760072C1B2C1
:1043500081B3407301B1C071807041B00050C19011
:10436000819140510193C053805241920196C056B1
:10437000805741970055C19581944054019CC05C81
:10438000805D419D005FC19F819E405E005AC19A41
:10439000819B405B0199C059805841980188C04871
:1043A00080494189004BC18B818A404A004EC18EB1
:1043B000818F404F018DC04D804C418C0044C184A1
:1043C000818540450187C047804641860182C042C1
:1043D000804341830041C18181804040C8D7B6A558
:1043E000900100000000000000000000000000003C
:1043F00000000000C8D7B6A5900000000000000033
:10440000000000000000000000000000C8D7B6A5B2
:10441000900200000000000000000000000000000A
:1044200000000000C8D7B6A5D001000000000000C1
:10443000000000000000000000000000C8D7B6A582
:10444000D00000000000000000000000000000009C
:1044500000000000C8D7B6A5D00200000000000090
:10446000000000000000000000000000C8D7B6A552
:1044700091000000000000000000000000000000AB
:1044800000000000C8D7B6A57001000000000000C1
:10449000000000000000000000000000C8D7B6A522
:1044A000A202000000000000000000000000000068
:1044B00000000000100C19070B343700040000083E
:1044C00000000000000000020001000010000000D9
:1044D000F044000800000020980C0000C40100080F
:1044E00058490008980C0020A8060000280200087F
:1044F0003004010100011005404042CC0520044079
:1045000040FF05031940000110047F201006021A25
:10451000FF2300121700000804F352565252505461
:10452000535256F202024D2007101097553D1501C7
:10453000000619FD1517101028000B1AD0FF901057
:1045400000FE020202FE781304039A100483601F27
:10455000D30005173F404078C5000A1D2424A4FE5F
:10456000A3220022CCCA2008080601FF0001040192
:104570000319FF02C8100C0484E45C44C48082FE6A
:10458000828204021780A0300802017F10103F8051
:10459000A1011A79100A2030AC63300000FE22011C
:1045A000011AF1100A226722121240407F420106CE
:1045B000197FB810051060028C4F229201011A5029
:1045C000100A04047E01407E42427E02031D427EA8
:1045D00050414F011F5010044448509B08051A7F5A
:1045E000504844582009FC242424FC252624080A89
:1045F00017047D040F1840308F80844C55252525E5
:10460000554C808068170000842805E0020418DCFF
:104610000119273804100C032A19FA040518780028
:10462000010E91080E1914A4442434AD6624940498
:1046300044A41430100B090808090909FD09090BE5
:10464000090A1808A9000E19020C80608040300F7A
:10465000C80808281827000D19027E01804020187C
:104660000601061820C9112414049088861200043B
:104670001A838C10282129171807130F1B403FC0DD
:104680000345E01F02F26E030A1AF8A925E0080BA1
:10469000198047300F10270047807FD04005202029
:1046A000BEAA0112BE0C0119A01380AF2412FF286C
:1046B000061BAFDF200900F80808F80C0B08070DEF
:1046C00019AD041D1B03310351070919801FFE0298
:1046D000BB032382FA050E1882B0041DBA03392DDC
:1046E000114F0F1A4458700330071010FF1010F0CC
:1046F000A7011AA12903264039167F220519403D3A
:10470000A005000A1A04F49494FF9494F404F10CA4
:104710000D69201F20484442415F414244487003D4
:10472000040D198060F807404848E85F4848481879
:104730003E01F70408081B020B1222D20A0682006F
:104740000D18FC04D4545454D4047F84C536A008F6
:1047500010198866010063828292AB8482C10224B0
:10476000CF571E9EFA040C09189EE0809EB2D2928A
:104770009E480308101C0808F4949292F10001F27C
:10478000929494F808801DEB03220E060D19E7039E
:104790004DEA050121011EE0B806200520C000FEFB
:1047A000050D1970031A813025E73DBE030E1BFF6E
:1047B0007003210152FF080519182F402004052F0E
:1047C000030C37040D1860041008403011969090C7
:1047D00091040C0619981413503040061D2A073016
:1047E0000644847E06050A0D1DD0070C0A1C806055
:1047F0001E00E007186080D0070C0B1A0320702CF5
:10480000232020243860C0032DBF034105051B6908
:104810002D69030C041C203F206F03014FF01DCABB
:10482000071C075A86100C2424E2060004182414DE
:104830000CC70C0F1AFF0408078041310F01013F1C
:104840004141711F038F04FCB1090D18E1063804C2
:104850000F0404310D1DB1091C0A4020504C434483
:10486000481020EF050D1B99084C0A44D8414620FA
:1048700038272000B7040117270C0F1B58C07FD022
:10488000482622E23AA222222A0620031D510A0CBF
:104890000818131212FF121212000A3C0B02E22235
:1048A000223E8080FF80A0E706011879140543822C
:1048B000423E461C054021060809070D19E803225F
:1048C000880132FF060D19C1031C06403800003C68
:1048D0007D050C081B4C404070040830FF04000BA1
:1048E0001808C838105454FF54547CC8119B0C0D40
:1048F0001C8049312F4849497F494949485005148E
:104900000604E42424E4E80D1948034D500525E588
:10491000051B8F080D1B0020102CE7242410081401
:10492000A7447F2C0A0101017F21110402FF510AD3
:104930000D1A790A154104081A482818FF18284842
:104940003F2C05008242312D0A1F0710BB030005D2
:084950002611E2020001000043
:040000050800018965
:00000001FF
